:020000040000fa
:080000000001040000000000f3
:020000040000fa
:100200006f9a20000e7922000e0188000000000085
:100210000c000700e0b120000100200011000700e1
:10022000000020000000e000020032000000020098
:1002300000000000da060200000000000040da00c2
:100240000000fe004440a900000020000000e00083
:100250000300320000002000a00188004440a800f4
:100260000000060091018800800078000000eb008b
:1002700015003700e280400032a0b4009101ba00be
:10028000e280400032a0b4009102ba00e280400057
:1002900032a0b4000002eb00472bde00f507b200ed
:1002a000602ce10004003a000059eb008301e900f2
:1002b000fdff3e00040037006128e100010032002c
:1002c0000082eb00040007001101ba000200e00008
:1002d000e8ff3a00000006003159ba008301e90046
:1002e0000c0032002159ba008301e90008003200f5
:1002f0000400e00003003a00e280400032a0b400b5
:10030000f5ff370011d9ba008301e900faff3a007e
:100310008100e800e180400032a0b4000000060047
:10032000889fbe008a9fbe00010578000100e000a2
:100330000400350008003c000000e000200032000e
:100340000500370060001000e080180002003b004c
:1003500001f02c001a0037000004be006011b80044
:100360006b0920000982cf00020039000882cf000b
:100370000441b000694252000e00320008003b0008
:1003800082817100610164008904d1000884d30076
:100390008b05e8000442e800f9ff3a000500370049
:1003a0000804440089844c008b05e9000442e900fc
:1003b000fbff3a00fe0007000af0a70001f0a000d2
:1003c0004f05be004f04be0000000600889fbe001f
:1003d0008a9fbe008c1f78001b010700220133009a
:1003e00003866c006450e100240032006420e100c8
:1003f000270032006150e100220032006120e1005c
:10040000210032008b854200eb07b1000134b800b7
:10041000003ab8000804420089844a00013ab80052
:100420000030b8008880400009014a000400330011
:100430000000400081804800020149008b05e9006e
:10044000c909dd00830170000100320013002000a3
:10045000c814de004814dd004709de001200b200b7
:10046000c808de0008847000d100070001f0a10078
:100470000cf0a70001f0a000040137006120e100aa
:10048000060132000801be000200be00f7ff37007f
:100490006150e100fcff3a0000013700889fbe0078
:1004a0008a9fbe008c1f7800e7000700ee00330033
:1004b00003866c006450e1002e0032006420e100ed
:1004c000330032006150e1002f0032006120e10072
:1004d0003100320085855500eb07b000090020008f
:1004e00008042000050037000804440089844c00fb
:1004f0000a0031000603430087834b0000015300cc
:1005000081815b00f8ff33000203be000800a000f9
:100510000804440089844c00f6ff3900c639dd0028
:100520008301730001003200130020008904d10010
:100530000884d3000998a300050032000800a70032
:100540000300a0008904d1000884d3008b05e800d3
:100550008904d1000884d3000001eb000281d2009d
:100560009300070001f0a1000cf0a70001f0a0002b
:10057000c60037006420e100c80032000801be0058
:100580000200be00f7ff37006120e100c300320027
:100590006000b800f3ff37000000200001f82700da
:1005a000f0ff37000001eb00bf00370003f0a200ae
:1005b000889fbe008a9fbe008c1f7800a2000700a3
:1005c000a90033006450e1004f0032006420e100d4
:1005d0005200320003826c0007003b000905d00086
:1005e0000306d000820f54000c065d0002003900a3
:1005f00002003200890178000306780085825500e8
:1006000004003d000003fd008103fd008502ea00b7
:100610008b854200840f720002003b0060001000d6
:10062000e08018006011b8000005eb007a28e100b6
:100630000a00390006007800c75ddd00f707b20048
:10064000878075002d003700828171000a017800d3
:10065000610560008180d1000080d3008502e9003f
:10066000f9ff3b00060440008784480002003b007d
:1006700060041400e0841c000988a3000700320015
:100680008a81710082817100610164008904d10056
:100690000884d3008b05e800170037000978a30011
:1006a00013003a000b00e000130034008b05e90052
:1006b0000804440089844c000a4474000978a300ab
:1006c0000d003a000b00e000070034008b05e90044
:1006d0000804440089844c0001003a000b0020000b
:1006e0000978a300f7ff32000001eb000200370099
:1006f000828171000a0178002d0007000cf0a7002c
:1007000001f0a000610037006420e10002003a001f
:10071000838f6c00610033000801be000200be0040
:100720005a0037000001be00c80007000470a7008f
:1007300003f0a1006509b100160032000d0035007c
:100740006828e10006003500f0ff2f00f1ff2700c8
:100750000300e00013003b0001002800000005003a
:1007600000004000818048008502e900fcff3a005b
:1007700008003700f88f420002003c008000eb00c8
:10078000000005008100d1000080d3008502e80050
:10079000fcff3a000300e00002003b006000100094
:1007a000e08018000000060014002000bc003700a4
:1007b00081002000618055000b003d000b002000ef
:1007c00061fe2f000100e1001d00340082817100f4
:1007d000610164008904d1000884d3000000e800ae
:1007e000faff3a007100200061006400030070000d
:1007f000020060000900320061044400e0844c0003
:100800000988a500050032008b05e8006808e100b2
:1008100002003a008904d1000884d300f20f2000be
:100820000258e10005003d00c75ddd00f907b20098
:100830008980750008007800000006000bf827008a
:100840008b007800000005000004be007f00070058
:100850000003be000405be000200be007b000700ce
:10086000844f7500000006000200be006450e100e5
:10087000050036006420e100020036000968a3008c
:1008800001003a000800be000160a0004f06780099
:100890004f05be004f04be0000000600f0ff2f0011
:1008a000f1ff2700f9ff3700889fbe008a9fbe0036
:1008b0008c9fbe00820578000004be006300070024
:1008c0000800be006420e1000700390002003a0081
:1008d000f1ff2700f0ff2f000160a00012022000ae
:1008e000224d8800550037006120e10003003a00e6
:1008f0000b00a70001f823005000370001f0a10011
:100900000200210093642400a7ff07000800be0036
:1009100004003500b2fd2000930c24007b0007008a
:100920000004be000005eb000b00a6004f0dde002a
:1009300001f0a1000004be0032982f0023ea23003a
:10094000a2fe07000001eb0003f023000b00a7004c
:1009500003f8230016ff070072ff07000000a7003e
:100960000a00a2006efe07000b00e0000300320048
:100970000200200003f023000cff070001f0a2009a
:100980000006be0002002000930424008ffe070032
:100990000801be0006ff0700809fbe000c00be00dd
:1009a00022a22a00d3a7230088fe07004f01be0021
:1009b000fffe07000004be0001f0a10002002000bd
:1009c0000398230078ff07000800be0019003500d7
:1009d0000001be007dfe07000006be00b2c5290072
:1009e000e362230079fe070022222b00f3942b0000
:1009f000effe07000c01be0074fe0700e273280042
:100a000083c02300eafe07000c01be006ffe070052
:100a100042aa2a00a3e22b00e5fe07000c01be005b
:100a20006afe07000801be0068fe07000801be005c
:100a3000dffe07000a00a70001f0a2004f06be007b
:100a40004f05be004f04be0000000600c70ade00ce
:100a5000f107b200f50fb20008003200e1cf42000a
:100a6000020032000170a00024000500810f700018
:100a7000010032000408050044000500810f7000e9
:100a800002003a00140005008502e9000000400061
:100a900081c04800fcff3b000170a000240005005d
:100aa000889fbe008a9fbe00841f780066ff0700f3
:100ab0004f00780011003300f0ff2f00838f6c008f
:100ac00006003b00040565000a00a7000800370087
:100ad00009f0a6001000200008003700820f540023
:100ae000838f5c00030039001000200001003e00ed
:100af0000000200009f0a7000000ea004f05be003a
:100b00004f04be000000e0000000060004002000ca
:100b100000003700889fbe008a9fbe008c1f7800af
:100b20004f26dd0048ff07004fff33006120e10042
:100b3000430032006250e10041003e003e003900b7
:100b40006420e1003c003200058255000f003b00ac
:100b50000402e80038003a00800f5300818f5b00e8
:100b6000350034000800be0003f0a10001f0a6002b
:100b700003f0a0000cf0a7008dfe070043ff370034
:100b80000603430087834b000c46460000055300d4
:100b900081855b00020033000a03be000c00a00048
:100ba0000402e900f6ff3b008505780006024300d9
:100bb00087824b0004003a006000b80009f0a700eb
:100bc00001f0a00031ff37000002520081825a007c
:100bd0000704e000040033000603430087834b0052
:100be0008b05e900faff3700090578000604be000e
:100bf0000203be006011b800edfe0700e00f5200d6
:100c0000e08f5a000700350002003c000c08a300ea
:100c1000040032000601be0003f0a0000cf0a700a3
:100c200063fe07000a85680001f0a1000af0a70032
:100c300001f0a00015ff37000800be0013ff3700c9
:100c4000100220000cf0a600204d880013ff370092
:100c50000000fa00e402a900e422a900e442a9008d
:100c6000e462a900e4c2a900011c200091407800c0
:100c7000c0cfb30000c060000014a000c0e1b70006
:100c8000210e80000000280000806000116f20000d
:100c900001007000200e8800c801a900c821a90029
:100ca000c841a900c881a900c8a1a900c8c1a9005c
:100cb000ca41a900c11c20009140780000ccb300bb
:100cc00000c07000cce1b700c11c2000914078004a
:100cd00000ccb30000c06000a040b300cce1b7007e
:100ce000d201a900d221a900d241a900b010200050
:100cf0001008880005e1a90080bb2000600888007a
:100d000011e1a900012a20009140780000ceb30033
:100d100000c07000a0e2b700a062a900112a200064
:100d200091407800c0cfb30000c06000a1e2b700de
:100d3000112a200091407800c0cfb30000c06000ad
:100d4000a1e2b7000000eb0010158800512a200036
:100d50009140780000ceb30000c06000c040b300f6
:100d6000a5e2b700412a20009140780000ccb300f2
:100d700000c060000024a000a4e2b70030012800f9
:100d8000401588000000eb0050158800a1e2a80083
:100d90008c60a800510920009140780000c7b30082
:100da00000c0700095e0b70090e0a9000080fa0054
:100db000000006000000fa00a5ff0700c1e1a9003d
:100dc00020032000af010700e602a800c05d20005c
:100dd000ac010700e602a900e0012000a90107001c
:100de000e622a800e0012000a6010700ee000700af
:100df0000000eb00f04c88000000eb00104d880074
:100e000080252000c0408800c00d2000d040880010
:100e1000b0032000e0408800401c2000f040880023
:100e20004038200000418800806020001041880088
:100e3000401a200020418800c00d20003041880069
:100e4000f03720004041880050f42e0060418800b7
:100e5000e0822000004d88000000eb00400e88007a
:100e6000c1e1a800106f2000b00e8800106f2000b4
:100e7000c00e8800106f2000d00e88007007200080
:100e8000400e880005e1a800f0002000900e8800c8
:100e90000060fe00c00d200050418800e07f20006f
:100ea000a0408800a0408000800078005041800071
:100eb000bf010700b04088005141800060418000c0
:100ec000a501070060408800c040800080007800d5
:100ed00050408000808f50002600310030c0b300a9
:100ee0007e0107007040880020c0b3007b0107002e
:100ef0008040880071408000804080000080400079
:100f000090408800f04c8000e30f50000200340055
:100f10000000eb00f04c8800f04c80009240800014
:100f2000e18220000000400001004000020878003b
:100f3000f04c80000000e800f04c8800004d80007c
:100f400022002000410020008a010700a040880004
:100f5000a04080008000780050418000940107008c
:100f6000b040880051418000604180007a01070054
:100f70006040880010408000800078006040800061
:100f8000808f50002e003600114d8000e040800020
:100f9000808f5000020034000000eb00104d8800ec
:100fa000ff3ffc00104d8000800040006083200067
:100fb0000080400090007800b0408000970107005a
:100fc00080007800106f200000804000b00e880084
:100fd000104d800080004000e08a2000008040002a
:100fe00090007800b04080008c01070080007800fd
:100ff000106f200000804000c00e8800104d80005f
:101000008000400060922000008040009000780046
:10101000b04080008101070080007800106f200040
:1010200000804000d00e88000000fc00104d8000c1
:101030000000e800104d88000000eb001040880020
:1010400021408000f0408000808f50000800340074
:1010500000c8bf000004e00003003200c1e1a900a5
:10106000e602a900e622a9000000eb00204088006b
:101070003140800000418000808f50000c0034001f
:10108000504180000000e80050418800104180007d
:101090008000780050418000808f500002003e00a8
:1010a00010418000504188000000eb003040880073
:1010b0004140800020418000808f50002300340098
:1010c000404180008000780070408000808f500098
:1010d0000500390040418000800078008040800099
:1010e000808f50000200310010c0b30000e8b7004c
:1010f0007140800080408000808f500009003600e1
:10110000714080008040800080805000304180002d
:10111000808f50000b00360010c0b30000e8b7000d
:1011200008003700814080007040800080805000bf
:1011300030418000808f50000200360010c0b300a4
:1011400000e8b7000000eb00404088000060fe00af
:101150005dff370000a0fe000000fa002040800084
:101160000000e80020408800304080000000e800d7
:1011700030408800104080000000e80010408800e7
:10118000404080000000e80040408800504080005f
:101190000000e800504088008460a9000080fa0048
:1011a0000080fe00004006001e00fa00881f780044
:1011b000ff3ffc000000eb00f04c88002f003700e0
:1011c000f04c8000600f9800f04c8000cf80de0073
:1011d00053fc070042be2c00631924007bfc07006f
:1011e0000200200043332400acfc0700edfc0700a4
:1011f0006011b800eefc0700400f9800510f9800f6
:10120000280e80006140b90045fc0700200f9800bf
:10121000310f98000800e00007003d0002002000a8
:10122000037824002e089000be089000e0fc070020
:10123000200f9800310f98002e099000be099000f1
:101240004e089000de08900060fc070035fd0700a6
:1012500000017800ee099000ee09900083804100c3
:101260006083200000804000020878000060fe00db
:10127000f04c80000000e800f04c8800f04c80004a
:10128000cf80de0026fc070002002000c3262400d9
:1012900045fd07000000e000c9ff34000000eb003e
:1012a000f04c880032003700f04c8000100f98009e
:1012b000f04c8000cf80de0019fc07000200200007
:1012c000030c240041fc070002002000032f24002f
:1012d000b6fc070052a32f00e3c823003bfc070025
:1012e000b0fc07006011b800b1fc0700700798005f
:1012f000010f9800280e80006140b90008fc07002b
:1013000050079800610798000800e00007003d00c2
:1013100002002000037824005e009000ee009000a0
:10132000a3fc070050079800610798005e01900039
:10133000ee0190007e0090008e08900023fc0700d4
:10134000f8fc0700000178009e0990009e099000bb
:1013500083804100e08a200000804000020878007d
:101360000060fe00f04c80000000e800f04c8800b7
:10137000f04c8000cf80de00e9fb07000200200077
:10138000c326240008fd07000000e000c6ff34006b
:101390000000eb00f04c88002e003700f04c80007d
:1013a00040079800f04c8000cf80de00dcfb070097
:1013b00002002000030c240004fc070002002000af
:1013c0000337240079fc070052a32f00e3c8230051
:1013d000fefb070073fc07006011b80074fc0700f7
:1013e0002007980031079800280e80006140b9005e
:1013f000cbfb0700008fbe000800e00005003d00a9
:1014000002002000037824001e00be0068fc0700d4
:10141000008fbe001e01be002e009000be00900096
:10142000eafb0700bffc070000017800ce01900036
:10143000ce01900083804100609220000080400037
:10144000020878000060fe00f04c80000000e80018
:10145000f04c8800f04c8000cf80de00b0fb07002d
:1014600002002000c3262400cffc07000000e0009b
:10147000caff34000000fc004f0478000080fa002e
:10148000000006000600fa00200798000000eb00ac
:10149000000f78000c0037000000eb0010079800e8
:1014a000040037000060fe001e0090000000e8000d
:1014b000100798009e009000e0822600808f500068
:1014c000f8ff36001e0fe8002e0090009e0f10005f
:1014d000f1ff39000080fa00000006000200fa0067
:1014e000004f7800ff3ffc001e4078006f40600016
:1014f0006f416000612a20009140780000cfb30066
:1015000000c0600002407000a6e2b7001e407800f4
:101510006f4060006f416000712a200091407800a8
:1015200000cfb30000c0600002407000a7e2b70027
:10153000a022a800a0c2bf00614060000004e0003b
:10154000fcff3200a002a9000000fc000014800093
:101550000080fa0000000600ff3ffc000002780057
:1015600081027800110009000582d8000000fc000b
:1015700000000600ff3ffc001201c30001027800da
:1015800002037800b0017800430188000000cb001e
:101590008402e900050278000400e000f9ff3a0047
:1015a0000600c800100180000000fc0000000600da
:1015b00000027800810278000500e000010032009e
:1015c0000300370060026a0010003300110037008a
:1015d000120009000520d900040030001102280083
:1015e0000100e100090034000b00370060026a00ce
:1015f00003003300e0826a00040033000200370079
:10160000e0826a0001003b0002003700100228005f
:1016100001003700f0fd27000000060000027800fe
:10162000810278001301c0004100c800f6002000cc
:0c1630000600c800100180000000060049
:020000040000fa
:0200000401f009
:04000000f7ff000006
:020000040000fa
:0200000401f009
:04000400c0ff000039
:020000040000fa
:0200000401f009
:04000800dfff000016
:020000040000fa
:10000800460c0000460c0000460c0000460c0000a0
:10001800460c0000460c0000460c0000460c000090
:10002800460c0000460c0000460c0000aa08000020
:10003800460c0000460c0000460c0000460c000070
:10004800460c0000460c0000460c0000460c000060
:10005800460c0000460c0000460c0000460c000050
:10006800460c0000460c0000460c0000460c000040
:10007800460c0000460c0000460c0000460c000030
:10008800460c0000460c0000460c0000460c000020
:10009800460c0000460c0000460c0000460c000010
:1000a800460c0000460c0000460c0000460c000000
:1000b800460c0000460c0000460c0000460c0000f0
:1000c800460c0000460c0000460c0000460c0000e0
:1000d800460c0000460c0000460c0000460c0000d0
:1000e800460c0000460c0000460c0000460c0000c0
:0800f800460c0000460c00005c
:020000040000fa
:10010800460c0000460c0000460c0000460c00009f
:10011800460c0000460c0000460c0000460c00008f
:10012800460c0000460c0000460c0000aa0800001f
:10013800460c0000460c0000460c0000460c00006f
:10014800460c0000460c0000460c0000460c00005f
:10015800460c0000460c0000460c0000460c00004f
:10016800460c0000460c0000460c0000460c00003f
:10017800460c0000460c0000460c0000460c00002f
:10018800460c0000460c0000460c0000460c00001f
:10019800460c0000460c0000460c0000460c00000f
:1001a800460c0000460c0000460c0000460c0000ff
:1001b800460c0000460c0000460c0000460c0000ef
:1001c800460c0000460c0000460c0000460c0000df
:1001d800460c0000460c0000460c0000460c0000cf
:1001e800460c0000460c0000460c0000460c0000bf
:0801f800460c0000460c00005b
:020000040000fa
:10163c00000800009e0100000200000000000000f5
:10164c00000000000000000000000000000000008e
:10165c00000000000000000000000000000000007e
:10166c00000000000000000000000000000000006e
:10167c00000000000000000000fe0700fe07fe0056
:10168c0007fe070000000000000000000000000042
:10169c00000000000000000000000000000000003e
:1016ac00000000000000000000000000000000002e
:1016bc00000000000000000000000000000000001e
:1016cc00000000000000000000000000000000000e
:1016dc0000000000000000000000000000000000fe
:1016ec0000000000000000000000000000000000ee
:1016fc0000000000000000000000000000000000de
:10170c0000000000000000000000000000000000cd
:10171c0000000000000000000000000000000000bd
:10172c0000000000000000000000000000000000ad
:10173c00000000000000000000000000000000009d
:10174c00000000000000000000000000000000008d
:10175c00000000000000000000000000000000007d
:10176c00000000000000000000000000000000006d
:10177c00000000000000000000000000000000005d
:10178c00000000000000000000000000000000004d
:10179c00000000000000000000000000000000003d
:1017ac00000000000000000000000000000000002d
:1017bc00000000000000000000000000000000001d
:1017cc00000000000000000000000000000000000d
:1017dc0000000000000000000000000000000000fd
:1017ec0000000000000000000000000000000000ed
:1017fc0000000000000000000000000000000000dd
:10180c0000000000000000000000000000000000cc
:10181c0000000000000000000000000000000000bc
:10182c0000000000000000000000000000000000ac
:10183c00000000000000000000000000000000009c
:10184c00000000000000000000000000000000008c
:10185c00000000000000000000000000000000007c
:10186c00000000009e0900000600000000000000bf
:10187c00a4090000020000000000000000000000ad
:020000040000fa
:08188c000040da000000fe003c
:00000001FF
